:100000000C948A010C94CE010C94E9010C94CE015D
:100010000C94CE010C94CE010C94CE010C94CE0124
:100020000C94CE010C94CE010C94E0180C94CE01EB
:100030000C94CE010C94CE010C94CE010C94CE0104
:100040000C94CE010C94CE010C94CE010C94CE01F4
:100050000C94CE012200210020001F001E0027006A
:1000600026002500240023000800070006000500E4
:10007000040001510C000B000A00090001000100FE
:100080000100010001000100010001000100010068
:100090000100010001000100010001000100010058
:1000A0000100010001000100010001000100010048
:1000B0000100010001000100010001000100010038
:1000C0000100010001000100010001000100010028
:1000D0000100010001000100010001000100010018
:1000E0000100010001000100010001000100010008
:1000F0000100010000000000000000002A2B280081
:1001000000000000000000000000000000000029C6
:10011000000000002C1E3420212224342627252E06
:10012000362D3738271E1F2021222324252633333E
:10013000362E37381F0405060708090A0B0C0D0E6A
:100140000F101112131415161718191A1B1C1D2F36
:100150003130232D350405060708090A0B0C0D0E56
:100160000F101112131415161718191A1B1C1D2F16
:100170003130354C0000000000000000000000009D
:1001800000000000000000007E0F00D4FFFFFFC74A
:100190000000007809025B00030100A0FA090400D6
:1001A00000010301010009210101000122400007B3
:1001B0000581030800010904010002030000000991
:1001C0002101010002222200070584030800010723
:1001D00005040308000109040200010300000009EE
:1001E000210101000122810007058303080001129B
:1001F000011001000000085C529FC80100010203C9
:10020000010403300000000C03480065006C00701E
:10021000006F0000001603410078006F006C00734F
:100220000074007500640069006F00000004030999
:10023000040660FF0961A1010962150026FF00950F
:1002400020750881020963150026FF0095207508B6
:100250009102C005010902A10185020901A1000561
:1002600009190129051500250195057501810295DA
:1002700001750381030501093009311581257F9539
:10028000027508810609381581257F950175088159
:1002900006050C0A38021581257F9501750881062F
:1002A000C0C005010980A101850319012AB7001505
:1002B0000126B700950175108100C0050C0901A148
:1002C00001850419012AA002150126A002950175D5
:1002D000108100C005010906A101050719E029E701
:1002E00015002501950875018102950175088103A6
:1002F0000507190029FF150026FF009506750881DE
:1003000000050819012905950575019102950175EA
:10031000039103C011241FBECFE5D8E0DEBFCDBFDF
:1003200004B603FE24C080916F0290917002A091E8
:100330007102B09172028730904BA740B04BB9F474
:1003400010926F021092700210927102109272025B
:1003500014BE84B7877F84BF0FB6F894A89581B583
:10036000886181BD11BC0FBEE0E0F8E3099510E0A3
:10037000A0E6B0E0E2E4F0E402C005900D92A23EF7
:10038000B107D9F722E0A2EEB0E001C01D92AF366E
:10039000B207E1F70E94F11B0C94EE1F0C940000D1
:1003A000A82FB92F80E090E041E050EA609530E05E
:1003B00009C02D9182279795879510F0842795275E
:1003C000305EC8F36F5FA8F30895EADF8D939D93C5
:1003D0000895CF93CFB7CF93DF93C395839BE9F76E
:1003E000839B10C0839B0EC0839B0CC0839B0AC061
:1003F000839B08C0839B06C0C0914602C395C093EF
:1004000046028EC06F93C0914502DD27C35BDD4F6E
:100410002F9365E5839B03C02F916F91E1CF0F93DD
:100420001F934F9320E040E15F9300B30C7003FBF8
:1004300027F93F9350E03BE039C01C7040642F77B0
:10044000012F5F5F1EC0406810B31C702F775250A1
:100450001FC0406400B32F770C70D1F15F5F00C004
:1004600023C0406210B32F771C7091F15F5F00C012
:1004700025C00C701027515012F45D5F0000115020
:1004800027952C3F10B3C8F61C7001270150279503
:100490002C3FC8F64227499300B30C7010274F73C6
:1004A000115027952C3FA8F64695469510B31C7021
:1004B00079F00127015027952C3F98F66B5A60F38D
:1004C000315000B3B0F600C010E81ABF00271CC0BE
:1004D0003B503195C31BD04010E81ABF0881033C44
:1004E00021F10B3411F1209142021981110F1213E5
:1004F000EDCF4A81441F093679F10D3211F0013EEA
:1005000029F74F7009F0042F00934B023F915F9140
:100510004F911F910F912F916F91CAB7C7FD5DCF7A
:10052000DF91CF91CFBFCF91189520914B0222231D
:1005300069F310914902112309F049C034300AF4DB
:1005400048C03093490220934402109145023BE099
:10055000311B309345023DC0009149020130BCF58A
:100560000AE54F7049F43091750034FD33C00093B3
:100570007500CFE1D2E032C0433059F0443091F001
:1005800030912A0234FD26C000932A02CBE2D2E049
:1005900025C03091630234FD1DC000936302C4E6A0
:1005A000D2E01CC03091360234FD14C000933602F4
:1005B000C7E3D2E013C0052710E000C0000002BB73
:1005C0001AC0052710E0221F1DC010E021C04AE517
:1005D00002C032ED432FC4E1D0E032E011B31C6021
:1005E000939A02B311BB5CE020E865E320FF052786
:1005F00002BB279517951C3FF0F66695B8F7B1F743
:1006000020FF052702BB279517951C3FD0F627959D
:10061000179517FF052700001C3F02BBB0F6299174
:100620003A9519F7037F10914A02110FC651D04035
:1006300002BB11F01093420210E81ABF086011B318
:10064000137F402F437F54E05A95F1F702BB11BB53
:1006500042BB5CCF81E0089581E008950C942C03A7
:1006600008950C9430031F93CF93DF9300D000D0F4
:100670000F92CDB7DEB749835A836B833091F40074
:1006800089819A8131111DC06623B9F02223A9F016
:100690000E945416182F682F89819A810E94FD1597
:1006A00069817A81812F0F900F900F900F900F909A
:1006B000DF91CF911F910C94220A0E942B16182FC4
:1006C000EFCF0E94541669817A81EDCFFC01262F6D
:1006D000408151816281738184810C943303CF9373
:1006E000DF93EC0160E00E946603BE01DF91CF91D1
:1006F0000C943103FF920F931F93CF93DF93E82F56
:10070000F0E0EC50FF4FF490C82FC695C695C69503
:10071000D0E0FE01EC57FE4F0491877010E0082EE8
:1007200002C0159507950A94E2F701701127CC587D
:10073000DE4FFE01C491D0E002C0D595C7958A95E1
:10074000E2F7C170DD270115110519F081EE0E9455
:10075000580E209719F086EE0E94580E8F2D0E9499
:10076000D50ECD2B19F086EE0E94A60E012B41F07E
:1007700081EEDF91CF911F910F91FF900C94A60E07
:10078000DF91CF911F910F91FF900895EF92FF920B
:100790000F931F93CF93DF93EC01162F0AE088810C
:1007A000882309F454C0813009F04EC0898181301A
:1007B00099F47E0122E0E20EF11C8A810E94D50E9E
:1007C000E7012196812F815050F3EFE9FFE0319747
:1007D000F1F700C00000F7CF823041F47E0182E0E3
:1007E000E80EF11C8A810E94580EEACF833041F452
:1007F0007E01E2E0EE0EF11C8A810E94A60EE0CF9F
:10080000843011F02196DDCF2A81229690E080E09D
:10081000AE014F5F5F4F2053330B2A30310548F054
:10082000019778F2EFE9FFE03197F1F700C000009F
:10083000F7CF089FB001099F700D1124C901860FE1
:10084000971F2981EA01E4CF0E947A03BACFDF9192
:10085000CF911F910F91FF90EF90089560E00C945D
:10086000C6038F929F92AF92BF92CF92DF92EF9288
:10087000FF920F931F936B017C0181E090E0A0E059
:10088000B0E04C015D0104C0880C991CAA1CBB1C83
:100890004A95D2F7B501A4014C015D0104C0880C52
:1008A000991CAA1CBB1C2A95D2F7482959296A29E8
:1008B0007B2904C0880F991FAA1FBB1F0A95D2F776
:1008C0008A019B010C211D212E213F2104171507B0
:1008D0002607370789F48C299D29AE29BF29BC0139
:1008E000CD011F910F91FF90EF90DF90CF90BF90BF
:1008F000AF909F908F90089580959095A095B0951A
:100900008C219D21AE21BF21EACF0F93382F262FB6
:1009100060913C0170913D0180913E0190913F01B9
:10092000042F432F0E9431040F910C943B150E9419
:1009300019190E949E17811102C00E9442180C943E
:1009400000070C94030708950E9464110E94A304F9
:100950002FEF84E39CE0215080409040E1F700C0FD
:1009600000000C9404190F931F93CF93DF93EC01B5
:1009700061E00E9466038C01BE010E945B0888232F
:1009800059F1BE01C8010E942E03882329F1BE013E
:10099000C8010E94780B8823F9F0BE01C8010E94AB
:1009A000CA0B8823C9F0BE01C8010E94ED0C882340
:1009B00099F08A81882339F001158CE5180751F0E8
:1009C0000F3D1C4579F0CE01DF91CF911F910F9122
:1009D0000C942A030E94A40480E0DF91CF911F9120
:1009E0000F9108950E944218F7CF08950C94F504D2
:1009F00081E008950C94F804CF93C82F0E94F60468
:100A00008C2FCF910C94FA0490E080E00895089523
:100A1000FC01EE0FFF1FEC56FE4F85919491089557
:100A2000CF93DF930E94220A0E942506EC018115D4
:100A300020E5920708F042C0811530E4930708F0E2
:100A4000BDC0883E910528F5803E910508F09DC007
:100A5000883A910588F4853A910508F08FC0813075
:100A6000910509F492C0009709F48FC0049708F02B
:100A70008CC0D0E0C0E089C08F3B910508F489C0EC
:100A8000805C9109C03CD105A0F30E940805EC01EF
:100A90007CC08115904250F4C11581E0D80708F060
:100AA00074C0C03FD10528F3D0656FC0C11590E375
:100AB000D90708F079C0CE019F70E7CF811525E5F1
:100AC000920758F5811534E5930708F0A6C0811503
:100AD00042E5940750F4C11581E5D80708F471C0C8
:100AE000DC2FCC27C16FD06A50C0982F9695969571
:100AF0009E0123703327C115D34508F07FC0C1E0A4
:100B0000D0E002C0CC0FDD1F2A95E2F720E2929FD1
:100B1000C0011124C82BD92B6FC0C11589E5D80796
:100B2000A8F4C11598E5D90708F07CC0C11526E5E1
:100B3000D20708F09ECF8C2F0E94BC06C82FD0E0B1
:100B4000DC2FCC27CC27DF71D0621FC0C1153AE55E
:100B5000D30708F46CC0CE0190568115904208F07E
:100B600088CF8D2F8F710E94BC0690E0982F882728
:100B700088279F719C012C2BE901E6CFC55AD0E054
:100B8000CC55DF4FC881D0E0D064CE01DF91CF914A
:100B90000895C85AD0E0CC0FDD1FCA58DF4F099026
:100BA000D881C02DD464F1CFCE019927D3FF03C0E3
:100BB000EC01D86CEACFEC01D06CE7CFDF70D06AE3
:100BC000E4CFCE01E4E096958795EA95E1F783704E
:100BD0002C2F26952695237090E2299F90011124B1
:100BE000382B8C2F8370C1E0D0E002C0CC0FDD1F0A
:100BF0008A95E2F7C22BD32BDC68C7CFC1E0D0E0E7
:100C000002C0CC0FDD1F2A95E2F730E2939FC001AE
:100C10001124C82BD92BDA68B8CFD82FCC27C46FB2
:100C2000D06AB3CFDC2FCC27C06FD06AAECF8C2F69
:100C30008F700E94BC0634E0D695C7953A95E1F7CF
:100C4000CF709C2FEC01D069A0CF82389105B1F113
:100C5000B0F48133910509F475C048F489329105E7
:100C600009F469C08A32910509F473C00895853387
:100C7000910509F459C08933910501F10895833E26
:100C80009105A9F138F4803E9105F9F0823E910575
:100C900049F10895863E9105A9F1873E9105C9F174
:100CA000843E910519F520911E0221FF1FC08091FD
:100CB0001D0284FD14C087EE90E0089520911D026E
:100CC0002370A1F080EE90E0089520911D0220FD98
:100CD00047C030911E0230FF09C024FF44C090E09D
:100CE00080E004C020911D0222FDF7CF08952091DD
:100CF0001D0222FD3BC030911E0230FDE3CF24FFD8
:100D0000F5CFEDCF20911D0223FFF0CF24FDE7CFDB
:100D1000D2CF20911D0223FD2CC030911E0231FF45
:100D2000EECF84EE90E0089520911D0225FFDECFE6
:100D300089E290E0089520911D0225FFD7CF85E339
:100D400090E0089520911D0226FFD0CF8AE290E026
:100D5000089520911D0226FFC9CF81E390E00895F8
:100D600089E390E0089583EE90E0089582EE90E0AC
:100D7000089586EE90E0089590911D0292FF06C0BE
:100D8000282F28712830F9F4877F846093FF06C0EC
:100D9000282F28712831F1F4877E846120911E026A
:100DA00020FF06C0382F38713830D9F4877F816032
:100DB00021FF06C0282F28712831D1F4877E816158
:100DC00094FD877E0895282F24712430F9F68B7FB7
:100DD0008860DCCF282F2471243101F78B7E886155
:100DE000DDCF382F3171313019F78E7F8860E0CF39
:100DF000282F2171213121F78E7E8861E1CF08955E
:100E00000C94FF0608950C940207E82FF0E0EB5EC7
:100E1000FD4F80810895089580EA8A95F1F708953D
:100E2000F894E82FE295EF70F0E031A9282F2F70A9
:100E300081E090E001C0880F2A95EAF7982F9095FD
:100E4000932391AB92A9892B82AB7894089582E980
:100E50000E94100783E90E94100784E90E9410078E
:100E600085E90E94100781E90E94100784E60E942C
:100E7000100783E60E94100782E60E94100781E6B1
:100E80000E941007A1E1B2E01C92E5E1F2E01082BD
:100E900011961C921197118212961C92129712822F
:100EA00013961C92138284E00E94CD070C94970441
:100EB000CF92DF92EF92FF920F931F93CF93DF9326
:100EC000CCEAD0E001E112E0D12CEE24E394F12C45
:100ED0008991F894E82FE295EF70F0E021A98F70E6
:100EE000A70102C0440F551F8A95E2F7CA01922F4D
:100EF000982B91AB92A98095892382AB78940E941C
:100F00000C07E7EAF0E030E020E0C12C4191A42F8B
:100F1000A295AF70B0E0D0968C9190E04F7002C077
:100F2000959587954A95E2F780FD33C08E2D022E68
:100F300001C0880F0A94EAF7C82A2F5F3F4F253077
:100F4000310521F7FE01319780810E941007F801D9
:100F50008081C81601F1C08281E0D82A0F5F1F4F3F
:100F6000F0E0C03BDF0709F0B3CF2D2D44E065E191
:100F700072E081E192E00E94CE070E94A1048D2DD3
:100F8000DF91CF911F910F91FF90EF90DF90CF9065
:100F9000089580E0D1CF80E0E0CF0895FF920F93D5
:100FA0001F93CF93DF93F82E092F162FD72FC42F1F
:100FB000222349F081E08093E4000E94B9189093C5
:100FC000E3008093E2008091E4008823A1F0809107
:100FD000E2009091E3000E94D118069760F0EF2D97
:100FE000F02FA12FBD2FCE0FDF2FD11DEC17FD0746
:100FF00041F41092E400DF91CF911F910F91FF9087
:10100000089581918D93F2CF82E290E00E94AD1F0E
:10101000803289F483E290E00E94AD1F823159F45E
:1010200084E290E00E94AD1F91E0863009F090E0EC
:10103000892F8170089580E0FCCFCF93C82F6FEF88
:10104000811160E282E290E00E94BB1F6FEFC1114C
:1010500062E183E290E00E94BB1F6FEFC11166E086
:1010600084E290E0CF910C94BB1F80E00E941D08A9
:101070000C949817089585E290E00E94AD1F682FA8
:1010800070E090E080E0089585E290E00C94BB1F52
:101090000E943A080E94040881110CC060E070E0D0
:1010A000CB010E9444080E949C090E94860A81E0AC
:1010B0000C941D080895CF93FB01C281CC2309F144
:1010C0009C0122513F452031310520F582510E947B
:1010D000960AC0E08C2FCF91089581E00E9461159F
:1010E00043E062E081E00E948504F3CF81E00E944A
:1010F000821543E062E081E00E948504EBCF82E04C
:10110000F6CF8031FFE59F0789F381319F45B9F321
:10111000C1E0E0CF8031EFE59E07F9F281319F45D4
:10112000C9F682E0DBCF2FEFFC0120830895EF9218
:10113000FF920F931F93CF93DF93EC01062FE8816B
:10114000E150E33108F05EC0F0E0E051F04E0C9465
:101150008C1F198289E08A83602FCE01DF91CF91A5
:101160001F910F91FF90EF900C94151D8981823093
:1011700069F0833071F08130D9F40E94C5180E9463
:10118000921F6A837B838C839D83E6CF0E943B08FA
:10119000F6CF7E0122E0E20EF11C10E0812F0E94CA
:1011A0000507F70181937F011F5F1430B9F7D4CF92
:1011B000602FCE010E949308CFCF89818230C1F782
:1011C0006A817B818C819D810E94921F0E944408CC
:1011D000C3CF4B816A8189810E946E099827892734
:1011E00098279D838C83B8CF2C813D81322723277C
:1011F00032274B816A8189810E948709ADCF0E9485
:101200009C09AACF8FEF8883A7CF0E942F0A8983DA
:10121000A3CF0E94310A9827892798279A83898328
:101220009BCF6B8170E089819A81AE014C5F5F4FEB
:101230009827892798270E94340A8ECF6B8170E007
:1012400089819A81AE014C5F5F4F98278927982743
:101250000E945B0A81CF0E94860A7ECF0E945C09B1
:10126000D6CF6B8170E089819A81AE014C5F5F4F70
:101270009827892798270E94D4096ECF6B8170E048
:1012800089819A81AE014C5F5F4F98278927982703
:101290000E94F90961CF0E9435085ECF0E94151D9A
:1012A000FFEF21EE84E0F15020408040E1F700C0E4
:1012B00000000E94041950CF84E0089550E0440FCC
:1012C000551F9AE0699F400D511D112498E2899F96
:1012D000400D511D1124CA01869608950F931F9346
:1012E000CF93DF930E945E098C010E94AD1FC82F2F
:1012F000D0E0DC2FCC27C80101960E94AD1F9E01D3
:10130000282BC901DF91CF911F910F9108950F9361
:101310001F93CF93DF93122F032F0E945E09EC01DE
:10132000602F0E94BB1F612FCE010196DF91CF91EC
:101330001F910F910C94BB1FAF92BF92CF92DF927F
:10134000EF92FF921F93CF93DF9384E5C82E80E046
:10135000D82ED0E07601C0E014C0F501259134917B
:10136000412F6C2F8D2F0E94870982E0A80EB11C9F
:101370001F5F153091F78AE0E80EF11CCF5FC43093
:1013800019F0570110E0E9CFDF5F88E2C80ED11CE9
:10139000D43001F7DF91CF911F91FF90EF90DF9054
:1013A000CF90BF90AF900895EF92FF920F931F934D
:1013B000CF93DF93EC018A017C01E60EF71ECE018C
:1013C0008696CE15DF0539F4DF91CF911F910F91ED
:1013D000FF90EF900895C03AD10540F40E94AD1FF0
:1013E000F80180830F5F1F4F2196E9CFF80110822B
:1013F000F9CFCF92DF92EF92FF920F931F93CF938B
:10140000DF937C016A018C01060F171FEC01CE01EE
:101410008696C017D10749F4DF91CF911F910F91A4
:10142000FF90EF90DF90CF900895C03AD10540F43F
:10143000FE01EE19FF09EC0DFD1D60810E94BB1F2E
:101440002196E5CF462F843038F4743028F4653087
:1014500018F4672F0C946E0990E080E0089580E105
:1014600008958AE393E00895EF92FF920F931F93FC
:10147000CF93DF93EC018A017C01E60EF71ECE01CB
:101480008A539F4FCE15DF0539F4DF91CF911F911D
:101490000F91FF90EF900895CA3323E0D20740F4F4
:1014A0000E94AD1FF80180830F5F1F4F2196E7CF89
:1014B000F8011082F9CFCF92DF92EF92FF920F9353
:1014C0001F93CF93DF937C016A018C01060F171FD6
:1014D000EC01CE018A539F4FC017D10749F4DF9129
:1014E000CF911F910F91FF90EF90DF90CF900895D3
:1014F000CA3323E0D20740F4FE01EE19FF09EC0DD8
:10150000FD1D60810E94BB1F2196E3CFCF93DF9327
:10151000C6ECD0E060E0CE010E94BB1F2196C11551
:1015200084E0D807B9F7DF91CF910895DF92EF9269
:10153000FF920F931F93CF93DF9300D000D0CDB7CE
:10154000DEB7F82E8FE08F1540F08FEF93E00E940A
:10155000AD1F06EC10E08823C1F00F900F900F90A4
:101560000F90DF91CF911F910F91FF90EF90DF903F
:101570000895011584E0180781F3C8010E94AD1F8A
:10158000811101C0FA940F5F1F4FF110F2CF198241
:101590001A821B821C82DD24D39478018FEFE81A13
:1015A000F80AC8010E94AD1F89831A828823A9F214
:1015B0009FEF980F933078F48A83D9820E5F1F4F84
:1015C000C7010E94AD1F8B83882339F2CE0101969B
:1015D0000E942E04E2CF8701F9CFAF92BF92CF9243
:1015E000DF92EF92FF920F931F93CF93DF937C01D3
:1015F0005B01C42FD22FFC0182818823F9F0409334
:10160000E7000E94B9189093E6008093E50080E21D
:101610008C0F883008F061C0C77081E001C0880F6E
:10162000CA95EAF7DF91CF911F910F91FF90EF904C
:10163000DF90CF90BF90AF900C94E80E1091E70030
:10164000141340C08091E5009091E6000E94D118EB
:101650006C01B701C5010E94DA13C816D90690F5CE
:10166000C0E2CD0F1D17B9F080E2810F883040F441
:10167000177081E001C0880F1A95EAF70E94EF0EFB
:10168000C83048F481E09D2F977001C0880F9A956B
:10169000EAF70E94E80E802F0E94D50EC830E8F4C9
:1016A000D77081E001C0880FDA95EAF7DF91CF911A
:1016B0001F910F91FF90EF90DF90CF90BF90AF9070
:1016C0000C94EF0E80E28C0F883038F4C77081E004
:1016D00001C0880FCA95EAF7E9CFDF91CF911F913A
:1016E0000F91FF90EF90DF90CF90BF90AF90089553
:1016F0000F939C01CB01243F4CE5340759F1A8F42A
:10170000293DFCE53F0701F12A3D4CE53407D1F1C5
:10171000283D3C4591F406E221EE41EE68ED7CE582
:101720000E94ED0A80E00F910895263FFCE53F07F7
:10173000E9F0B0F0273F3C45F9F0FC0182818823B5
:1017400039F11092E700EFCF07E225EE45EE69EDA3
:101750007CE5E6CF06E221EE40EE64EF7CE5E0CFEB
:1017600007E225EE44EE65EF7CE5DACF06E221EEF6
:1017700042EE66EF7CE5D4CF07E225EE46EE67EF5A
:101780007CE5CECF08E221E045EE6AED7CE5C8CFEE
:1017900081E0C9CFCF93DF93EC01FB0182818823E5
:1017A00009F419C1C230FCE5DF07C0F1C6319CE580
:1017B000D90730F09E012B5F3C452930310570F58B
:1017C0000E94B11790931E0280931D02C031ECE578
:1017D000DE0709F4CFC008F05BC0C8308CE5D8073D
:1017E00009F4B6C088F5C430ECE5DE0709F4A8C0FA
:1017F000C0F4C2308CE5D80709F49CC080911D026A
:101800008260C330DC4509F498C080911D0290913C
:101810001E020E94BF170E94641180E0DF91CF91E9
:10182000089580911D028061C630ECE5DE0709F461
:1018300084C080911D028860C730DC4508F47DC0FB
:1018400080911D02806279C0CC308CE5D80709F404
:1018500089C070F480911D028C60CA30ECE5DE070F
:1018600009F46BC008F478C080911D028E7F65C0BA
:10187000CE308CE5D80709F479C080911D028B7FAA
:10188000CF30DC4508F459C080911D028F7E55C0D1
:10189000CC3FECE5DE0709F457C030F5C3318CE5E9
:1018A000D80709F46FC078F4C131ECE5DE0709F41C
:1018B00065C0C231DC4509F0A8CF0E946411809157
:1018C0001D028F773AC0C5318CE5D80709F462C094
:1018D00008F476C080911E028160CB3FDC4509F0A0
:1018E00094CF80931E0291CFC115FDE5DF0709F467
:1018F0004DC088F480911E028D7FCE3F9CE5D907B4
:1019000081F380911E028E7FCF3FDC4550F38091A2
:101910001E028360E6CFC230FDE5DF0709F459C03F
:1019200008F444C080E0C330DD4509F06ECF0E946A
:1019300044186BCF80911D02816080931D0265CF9A
:1019400080911D028460F9CF80911E028260C9CF10
:1019500080911D028064F1CF0E94641180911D026C
:101960008068EBCF80911D028D7FE7CF80911D02B3
:10197000877FE3CF80911D028F7DDFCF80911D0295
:101980008F7BDBCF80911D02837FD7CF80911E029A
:101990008C7FA7CF80911D0282FB992790F921E0CF
:1019A000922790FB82F990FB83F9C7CF80911E02AA
:1019B000982F909591708E7F892B90FB81F991CF14
:1019C0000E94641190911D02892F97FB87F980581E
:1019D000B4CF81E0ACCF81E021CFCF93DF93EB0197
:1019E00086319C4511F50E94E9169A81992399F058
:1019F0008A7A91E009F490E09093E800811109C09F
:101A000089E20E94C4160E94351780E0DF91CF91D1
:101A1000089585E3F6CF8091E800811104C089E242
:101A20000E94CB16F0CF85E3FBCF81E0EFCF909300
:101A3000EE008093ED000895E091ED00F091EE004E
:101A4000309721F00190F081E02D099480E0089515
:101A5000E091ED00F091EE00309721F00280F381EB
:101A6000E02D09940895E091ED00F091EE0030979B
:101A700021F00480F581E02D099408952091EB0078
:101A80003091EC002817390771F09093EC008093A7
:101A9000EB00E091ED00F091EE00309721F0068030
:101AA000F781E02D099408952091E9003091EA0032
:101AB0002817390771F09093EA008093E900E091CC
:101AC000ED00F091EE00309721F00084F185E02DDB
:101AD0000994089584B7806884BF84B7806884BF00
:101AE0000895089508950C94710D08950C94750D42
:101AF0000E946A0D0E94720D0C94730D81E008958E
:101B00000C947E0D089508950E94B2180E94270734
:101B10000E9448080E942D190C94760DBF92CF9216
:101B2000DF92EF92FF920F931F93CF93DF93CDB786
:101B3000DEB72A970FB6F894DEBF0FBECDBF0E9466
:101B4000820D0E94830D0E9458070E94800D8823F9
:101B500009F45EC080EFC82E80E0D82E10E000E0CF
:101B6000B02E802F0E940507E82EF601F1906F013C
:101B7000F81609F447C08091510181FD0E940B07BE
:101B80009F2D9E2580E0FF24F394292F2F21B1F172
:101B90008E83BF82EF2081E009F480E088870E9475
:101BA000B9188160782F9A8789874E815F8168850F
:101BB0008A850E94290EF801E051FF4F8081F826A6
:101BC000F0820E94D81A0E941C0D9091EF00891794
:101BD00081F10E941C0D8093EF002A960FB6F894B5
:101BE000DEBF0FBECDBFDF91CF911F910F91FF9050
:101BF000EF90DF90CF90BF900C94FC048F5FFF0CB0
:101C0000853019F60F5F1F4F0430110509F0A8CF7A
:101C10008FEF89838A831B820E94B9188160782F95
:101C20009D838C8349815A816B818D810E94290E0D
:101C3000C8CF2A960FB6F894DEBF0FBECDBFDF9196
:101C4000CF911F910F91FF90EF90DF90CF90BF90B9
:101C50000895CF93DF93CDB7DEB72B970FB6F894E7
:101C6000DEBF0FBECDBF4F83588769877A878B87CA
:101C70001E821D8285E0FE013796DE0111960190DD
:101C80000D928A95E1F749815A816B817C818D8122
:101C90009E812B960FB6F894DEBF0FBECDBFDF91AD
:101CA000CF910C94DD13FC01808191810C949616E8
:101CB000CF93C82F882309F447C08CEF8C0F813A4B
:101CC000A0F46C2F80916000909161000E945B18DD
:101CD000882329F08C2F0E94CB160E9435178C2F59
:101CE0000E94C416CF910C94351780E28C0F883077
:101CF00048F4C77081E001C0880FCA95EAF70E94D6
:101D0000EC16F0CFEBE5EC0FE33040F4F0E0E252FC
:101D1000FF4F808190E0CF910C943E0DE8E5EC0FF1
:101D2000E73150F4F0E0EE0FFF1FE055FF4F8081E8
:101D30009181CF910C94540DC03F30F08C2F0E94B4
:101D4000D219CF910C94BD1ACF910895882361F1D7
:101D50009CEF980F913A20F40E94CB160C94351703
:101D600090E2980F983050F4877091E001C0990F7D
:101D70008A95EAF7892F0E94F216F0CF9BE5980F1B
:101D8000933020F490E080E00C943E0D98E5980F9D
:101D9000973120F490E080E00C94540D803F20F0C7
:101DA0000E943A1A0C94BD1A0895CF93C82F0E942E
:101DB000580EC93349F42FEF87EE93E0215080404D
:101DC0009040E1F700C000008C2FCF910C94A60E3C
:101DD000882321F00E94EC160C943517089588236F
:101DE00021F00E94F2160C9435170895BF92CF92FD
:101DF000DF92EF92FF920F931F93CF93DF936C01CB
:101E0000D62FC72FFC01058102950F701281111189
:101E10000E9409170E94E216E82E882391F01123F0
:101E2000D1F08C2F807F803421F080E28D0F8830BC
:101E300090F082E00E9480170E94E21691E0E82E66
:101E4000E926BC2EB2949FE0B922EB2DF0E0ED5FC5
:101E5000FF4D0C948C1FE12CF4CF0C2F0F70C07F22
:101E600011F00295007F1123A9F0002359F080E2C0
:101E70008D0F883010F0D11109C0802F0E94EC1610
:101E80000E9435178D2F0E94580E14C0802F0E947B
:101E9000FC16F6CF8D2F0E94A60E002359F080E28B
:101EA0008D0F883010F0D1112CC0802F0E94F216B7
:101EB0000E9435172B2D2850330B2430310520F488
:101EC0000E941C0D0E94FC04EE2009F49EC10E9499
:101ED000DE1680FD9AC1F60112820E94D8160E9479
:101EE0006115C6010E9426110E94D816DF91CF917C
:101EF0001F910F91FF90EF90DF90CF90BF900C94C7
:101F00008215802F0E940217D3CFFC2FFF70FF2E67
:101F1000C07FC03219F0F29480EFF822DD2369F01F
:101F2000D13049F1112391F1002351F1F60185815E
:101F300080FFA8CF8F70858323C0112381F001110A
:101F400006C00E941C178F290E94E80EB3CF0130F3
:101F5000C1F70E941C178F290E942217ABCF0111D5
:101F600006C00E942B178F2D0E94EF0EA3CF0130C9
:101F700009F4A0CFF6CF112329F0063008F09ACF4C
:101F80008F2DE2CF053008F095CFEDCF002359F328
:101F9000D93349F4FFEF27EE33E0F15020403040D1
:101FA000E1F700C000008D2F0E94A60E83CF8C2F7A
:101FB00086958695837069F0813009F07BCF8D2FEF
:101FC0009C2F9370111102C090E080E00E94540D8C
:101FD00071CF8D2F9C2F9370111102C090E080E083
:101FE0000E943E0D67CF8D2F112329F00E94D21938
:101FF0000E94BD1A5FCF0E943A1AFACF8C2F8370CD
:1020000009F041C0111156CF4D2F429546954770AA
:10201000440F440F0D2F0F7010E030E020E0042E2D
:1020200004C0000F111F221F331F0A94D2F760E073
:1020300070E0CB01D4FF0FC06FE070E080E090E073
:1020400004C0660F771F881F991F4A95D2F76095C5
:10205000709580959095C695C695C370602B712B31
:10206000822B932BC23049F058F4C13019F00E94F2
:10207000131520CF0E9401151DCF0E9425151ACFE0
:102080000E94FF1417CF8695112311F08C2F8170B9
:10209000882309F40FCF4D2F429546954770440F82
:1020A000440F0D2F0F7010E030E020E0042E04C02C
:1020B000000F111F221F331F0A94D2F760E070E057
:1020C000CB01D4FF0FC06FE070E080E090E004C06F
:1020D000660F771F881F991F4A95D2F760957095F4
:1020E00080959095C695C695C370602B712B822BF9
:1020F000932BC23049F058F4C13019F00E94D81522
:10210000D9CE0E94C615D6CE0E94EA15D3CE0E9423
:102110003B15D0CECF70112329F08C2F0E94611572
:102120008D2F12CF8D2F0E94EF0E8C2F0E948215C3
:10213000C1CED23F89F160F4D03FC9F0D13F29F13F
:10214000112309F442C001119DCE8C2F8F7121C043
:10215000D33F39F1D43FA1F7112369F1CF718C2F0F
:102160000E94611563E08C2F0E946B17A3CE112390
:1021700041F0053008F09ECE8C2F8F710E94A5157E
:1021800099CE063008F096CEF7CF8C2F8F711123A1
:1021900069F20E9461158ECE8C2F8F711123C9F3C5
:1021A000C5CF112329F08C2F8F710E944C1582CE40
:1021B0000E9447157FCE81E00E948017023008F40C
:1021C00079CE82E00E94801775CE002359F0D93372
:1021D00009F0E9CE8FEF97EEE3E081509040E040C8
:1021E000E1F7DFCE8C2F8F71A1CF4C2F4F706D2F69
:1021F000C6010E9404050E9477145CCE4C2F4F70DC
:102200006D2FC6010E94070555CEDF91CF911F911A
:102210000F91FF90EF90DF90CF90BF9008950F93B4
:102220001F93CF93DF93EC01688179818A810E94AB
:10223000A0168C010E94FC150E94FE14B801CE016C
:10224000DF91CF911F910F910C94F60ECF93DF93F6
:10225000EC018B819C81892B29F0888199818923CC
:102260008F3F59F4DF91CF910895CE010E940F1155
:10227000CE01DF91CF910C946F03CE010E94B30485
:102280008111F3CF0E94E216882361F38A818823AB
:1022900049F382E0DF91CF910C9480170E940917D7
:1022A0000E9419170E9435170E94E31B0E94BD1A55
:1022B00090E080E00E943E0D90E080E00C94540D90
:1022C0000E94D2160C944E110E94F9160C946011C3
:1022D000E92FE295EF70E250EE3070F4F0E0ED5E41
:1022E000FF4D0C948C1F803F19F020F4883E20F4A1
:1022F00081E00895843FE1F380E00895883EC0F3D3
:10230000813FD1F7F5CF93FB882780F908950E948C
:1023100096160C946811CF93DF9300D000D00F92E3
:10232000CDB7DEB70F900F900F900F900F90DF9109
:10233000CF910895CF93DF9300D000D000D0CDB7D8
:10234000DEB726960FB6F894DEBF0FBECDBFDF9185
:10235000CF9108951F93CF93DF93C091F50016E0BE
:102360008091F6008C1304C0DF91CF911F910895E6
:10237000D0E01C9FF0011D9FF00D1124E950FF4F8C
:102380004081518162817381848195810E949A117B
:102390002196C770E5CF40912701509128016091A7
:1023A000290170912A0180912B0190912C010C94AC
:1023B0009A111F93CF93DF9380912C01807FA9F412
:1023C00080912901882389F08091F500C091F60061
:1023D0006091270170912801A0912A01B0912B01F1
:1023E000D62FD72316E0C81304C0DF91CF911F91D9
:1023F000089590E0109711F0DF3F19F4019687706F
:10240000F2CF189F9001199F300D1124F901E95066
:10241000FF4F41814713F2CF40814613EFCF4281F6
:102420004111ECCF438154814A1B5B0B483C510561
:1024300028F780912C018F70806180932C01F90125
:10244000E450FF4F80818F708061808387E291E04C
:102450000E942611DF91CF911F910C94AA11AF9287
:10246000BF92CF92DF92EF92FF920F931F93CF9381
:10247000DF93CDB7DEB761970FB6F894DEBF0FBE1E
:10248000CDBF8C0185E0F801DE011D9601900D9213
:102490008A95E1F7F80140815181E28087E2C82EF8
:1024A00081E0D82E60912A0170912B016115710590
:1024B00009F461C19091270120912801892F82237D
:1024C0008F3F09F458C1A380B480F0902901F50131
:1024D000E61BF70BFF2009F4FCC080912C01382F7C
:1024E000307FE83CF10508F0B2C0311179C0FE2C14
:1024F000251323C0941321C0E1101FC08F70806189
:1025000080932C010E94CB11C6010E94261180915C
:102510002C01F80185838F2D61960FB6F894DEBFEC
:102520000FBECDBFDF91CF911F910F91FF90EF9024
:10253000DF90CF90BF90AF900895AB2829F0842F03
:1025400085238F3F09F033C180E0F82FF170DF2E33
:1025500080FF3CC08091F5002091F60036E08213A8
:1025600015C04D875E878D859E850E949616292F02
:1025700022952F702230F0F0243018F59F70F1F082
:10258000F8019581907FD1F4D12C1EC090E0389F46
:10259000F001399FF00D1124E950FF4F618165135F
:1025A00006C06081641303C062816E110FC0019682
:1025B0008770D5CF9F7011F0882331F3805E88300B
:1025C00018F3C8010E942611FD2CA5CFEE2009F4B6
:1025D000A2CF80912C01816080932C01F12C9BCFA4
:1025E000251306C0941304C0F801EE2009F48DC031
:1025F0004D875E878D859E850E948711882319F1FE
:10260000EE2009F180912C01803270F02091270199
:102610003091280138872F831986BB86AA868C873C
:10262000CE0107960E94261186E0F801A7E2B1E0EC
:1026300001900D928A95E1F70E94D9110E94CB1169
:10264000FF24F39468CFC8010E942611F9CF3111FD
:1026500013C07A2DB98AA88A6E2D89890E948B11A0
:1026600087E291E00E94261186E0F60111928A9598
:10267000E9F70E94CB11B2CF25130FC094130DC000
:10268000E1100BC0F8018583C8010E94261186E085
:10269000F60111928A95E9F73ECF4D875E878D85C9
:1026A0009E850E948711882371F2EE2061F280914D
:1026B0002C01803208F4B8CF2091270130912801F5
:1026C0003A8329831B82BD82AC828E83CE01019620
:1026D000A9CFE83CF10508F041C0FE2CEE2009F43A
:1026E000B2CF25132AC0941328C080912C0180FDFD
:1026F0001BC0982F907FC1F0F8018583903F31F087
:10270000982F907F905F8F70892B8583C8010E94DE
:10271000261186E0F801A7E2B1E001900D928A95BA
:10272000E1F70E94CB11F7CE86E0F801A7E2B1E015
:1027300001900D928A95E1F7EECE4D875E878D85EB
:102740009E850E94871181116FCF80912C0181603D
:1027500080932C01C8010E942611DDCE7A2DB98A02
:10276000A88A6E2D89890E948B1186E0F60111924C
:102770008A95E9F7D6CFEE2009F465CF4D875E87BD
:102780008D859E850E948711F82E882309F45BCFE2
:1027900086E0F801A7E2B1E001900D928A95E1F799
:1027A00087E291E00E94530E0E94D911BACF81E0D6
:1027B0008E25CBCE88EC90E008951F93CF93DF93C6
:1027C000CDB7DEB72C970FB6F894DEBF0FBECDBFE6
:1027D0004F83588769877A878B879C87CE010796B6
:1027E0000E942F12882369F08A859B85892B39F0F6
:1027F0004F815885842F85238F3F09F071C016E0E3
:102800005FC086E0FE013796DE01119601900D92C1
:102810008A95E1F78A859B85892B89F38F81988535
:1028200089238F3F61F32091F60030E0C9010196C2
:10283000877099274091F5004817190671F40E9496
:1028400064111092F6001092F50086E0E7E2F1E0E4
:10285000DF011D928A95E9F7D2CF96E0929FD001D1
:10286000939FB00D1124A950BF4FFE0131960190E6
:102870000D929A95E1F78093F6000E94AA11BFCFBE
:10288000819FC001112489509F4F0E942F128823DD
:10289000E9F0E091F5001E9FF0011124E950FF4F8F
:1028A0004081518162817381848195810E949A1156
:1028B0008091F50090E00196877099278093F5004C
:1028C0008091F5009091F6008913DACF2C960FB61F
:1028D000F894DEBF0FBECDBFDF91CF911F91089559
:1028E00069857A858B859C850E949A1188CFEF92A5
:1028F000FF920F931F93CF93DF938C01892B81F06D
:10290000F12CEE24E394E8012196F80184918437B8
:1029100070F4843008F05FC08130B1F08230A1F1F2
:10292000DF91CF911F910F91FF90EF900895853720
:1029300009F44CC008F43DC09CE7980F903780F72D
:102940008F770E94A60E49C00E5F1F4FFE01849133
:1029500090E2980F983060F48770FE2D01C0FF0F51
:102960008A95EAF78F2F0E940C170E94351702C034
:102970000E94580E8F2D815030F2EFE9FFE0319721
:10298000F1F700C00000F7CF0E5F1F4FFE018491EA
:1029900090E2980F983050F48770FE2D01C0FF0F21
:1029A0008A95EAF78F2F0E941217DFCF0E94A60E9A
:1029B000E1CF0E5F1F4FFE01C491C150D8F28FE9E5
:1029C0009FE00197F1F700C00000F7CF0E5F1F4FA7
:1029D000FE01F490CFCF0E94580E8E01CBCF089508
:1029E0000C94EF140E94F014609340017093410125
:1029F00080934201909343010C944E1108950C94DE
:102A0000F2140F931F930091400110914101209106
:102A1000420130914301602B712B822B932B1F912C
:102A20000F910C94F2140F931F9300914001109199
:102A3000410120914201309143016023712382239F
:102A400093231F910F910C94F2140F931F930091F5
:102A500040011091410120914201309143016027D2
:102A60007127822793271F910F910C94F2140C94D5
:102A7000EF140C9437150E94391560933C01709344
:102A80003D0180933E0190933F010C944E1160E014
:102A900070E0CB010C943B150F931F9341E050E085
:102AA00060E070E08A019B0104C0000F111F221F2B
:102AB000331F8A95D2F7C901B8011F910F910C9469
:102AC0003B150F931F9341E050E060E070E004C0BD
:102AD000440F551F661F771F8A95D2F780913C01DE
:102AE00090913D01A0913E01B0913F018A019B016F
:102AF000082B192B2A2B3B2BC901B8011F910F91D1
:102B00000C943B150F931F9341E050E060E070E0A0
:102B100004C0440F551F661F771F8A95D2F7CB015B
:102B2000BA01609570958095909500913C01109147
:102B30003D0120913E0130913F01602371238223AA
:102B400093231F910F910C943B150F931F9341E01A
:102B500050E060E070E004C0440F551F661F771F0F
:102B60008A95D2F780913C0190913D01A0913E0160
:102B7000B0913F018A019B01082719272A273B278B
:102B8000C901B8011F910F910C943B150F931F932E
:102B900000913C0110913D0120913E0130913F0197
:102BA000602B712B822B932B1F910F910C943B1553
:102BB0000F931F9300913C0110913D0120913E0124
:102BC00030913F0160237123822393231F910F9142
:102BD0000C943B150F931F9300913C0110913D0104
:102BE00020913E0130913F01602771278227932772
:102BF0001F910F910C943B150895E92FEE0FEE0FE6
:102C00009E0F890F982F977041E001C0440F9A954D
:102C1000EAF786958695869595E0899FF0011124BF
:102C2000E35DFE4F30E020E070E05191DF0111974D
:102C3000CB01022E02C0969587950A94E2F7817027
:102C400081958527842385278C932F5F3F4F2530DF
:102C5000310559F70895E92FEE0FEE0F9E0F890FFA
:102C6000982F977086958695869525E0829FF0012E
:102C70001124E35DFE4F50E040E080E0219130E020
:102C8000092E02C0369527950A94E2F72170332762
:102C9000042E01C0220F0A94EAF7822B4F5F5F4F88
:102CA0004530510559F70895BF92CF92DF92EF92C8
:102CB000FF920F931F93CF93DF938C01C0903C0141
:102CC000D0903D01E0903E01F0903F0180914001A5
:102CD00090914101A0914201B0914301C82AD92AA3
:102CE000EA2AFB2ACFE1D0E0BC2ED701C6010C2E88
:102CF00004C0B695A795979587950A94D2F780FD5D
:102D00000EC0219788F7B12C8B2DDF91CF911F91A9
:102D10000F91FF90EF90DF90CF90BF900895B80192
:102D20008C2F0E941005019761F3EECFCF93DF93B4
:102D3000EC010E945416BE01DF91CF910C94100556
:102D40001F93CF93DF93EB019091F400992331F01F
:102D5000CB01DF91CF911F910C949616882379F0C7
:102D6000CB010E945416182F682FCE010E94FD152A
:102D7000BE01812FDF91CF911F910C941005CB01E3
:102D80000E942B16182FF4CF682F8091600090912D
:102D900061000C949118682F8091600090916100FF
:102DA0000C94931880916000909161000C94951898
:102DB000809144018595859585950895809144017C
:102DC0008770089590914401977081E009F480E044
:102DD000089580915001089590915001892B80931E
:102DE000500108958095909150019823909350013F
:102DF000089510925001089590914F01892B80936E
:102E00004F010895809590914F01982390934F0121
:102E1000089510924F01089590914E01892B80934F
:102E20004E010895809590914E01982390934E0104
:102E3000089510924E0108958091450108950895D6
:102E40000C941F1790914501981721F0809345012C
:102E50000C942017089580914501882329F0109241
:102E6000450180E00C9420170895E0916000F091F6
:102E70006100809150018083E0916000F0916100D9
:102E8000808190914F01892B8083E0916000F091C7
:102E90006100808190914E01892B80839091450142
:102EA000992381F0E0916000F09161008081892B8D
:102EB000808380916000909161000E944918811187
:102EC0000E942B1780916000909161000C94280D56
:102ED00008950C94681798E0899F90011124622B43
:102EE000609344010E946115809144018595859508
:102EF00085950C9469171092440180E00C94691731
:102F0000909144018095892380934401282F277054
:102F100071F4282F082E000C330B9217130639F08A
:102F20008595859585950E9482150C947B1708954B
:102F30006FEF7FEF90E080E00C94D81F90E080E08E
:102F40000E94B51F21E08C3E9E4F09F020E0822FA9
:102F5000089582E090E00C94AD1F83E090E00C9423
:102F6000AD1FCF9384E090E00E94AD1FC82F81E297
:102F700090E00E94AD1F982F8C2FCF910895CF9392
:102F8000C92F682F84E090E00E94BB1F6C2F81E264
:102F900090E0CF910C94BB1FAB01BC018FE090E09F
:102FA0000C94CC1FAB01BC0183E190E00C94CC1FCE
:102FB00060E070E0CB010C94D21760E070E0CB01D0
:102FC0000E94CC170C94D8176CEE7EEF90E080E056
:102FD0000E94D81F60E082E090E00E94BB1F60E08A
:102FE00083E090E00E94BB1F1092400110924101CB
:102FF000109242011092430160E084E090E00E9450
:10300000BB1F60E081E290E00E94BB1F60E085E0B2
:1030100090E00E94BB1F60E086E090E00E94BB1F32
:103020006FEF87E090E00E94BB1F40E050E0BA01E4
:1030300088E090E00E94CC1F60E08DE090E00E946C
:10304000BB1F40E050E0BA0188E190E00E94CC1F35
:1030500060E087E190E00E94BB1F40E050E0BA01D1
:103060008CE190E00E94CC1F60E080E290E00E9442
:10307000BB1F40E050E0BA0188E190E00E94CC1F05
:103080000C94DD170C94E417682F8EE090E00C94FC
:10309000BB1F9C012E5F3F4FAC01485F5F4F80E03C
:1030A0002417350709F40895F90191919F01992397
:1030B000B9F38F5FF5CF662349F0FC01329608968D
:1030C0002191261729F0E817F907D1F780E0089534
:1030D00081E008959C01FC0132969FEF80E04191D0
:1030E000461751F09F3F19F4411101C0982F8F5F8F
:1030F0008630A9F79F3F09F40895290F311D97FDE8
:103100003A95F90162830895FC013296089621915F
:10311000261303C0DF0111971C92E817F907B9F7CE
:1031200008950C946A180C948418029626E0FC0109
:1031300011922A95E9F7089508950895CF930E9472
:103140009C180E9458070E949D18C0E08C2F0E9476
:103150000507811105C0CF5FC430C1F7CF91089535
:1031600081E0FCCF8BE083BF8AEF8CBF82E089BF18
:1031700008952FB7F8948091190290911A02A091A6
:103180001B02B0911C022FBF08952FB7F8946091D5
:10319000190270911A0280911B0290911C022FBF9C
:1031A00008959C014FB7F8948091190290911A02EA
:1031B000A0911B02B0911C024FBF821B930B08957C
:1031C00078941F921FB61F9211248F939F93AF93F1
:1031D000BF938091190290911A02A0911B02B091A5
:1031E0001C020196A11DB11D8093190290931A0231
:1031F000A0931B02B0931C02BF91AF919F918F913E
:103200001F901FBE1F90189588E198E00FB6F894A4
:10321000A89581BD0FBE91BDA895F894D8E0CEE5E4
:1032200028E3299320E0299314BEFFCF08950C943E
:1032300035080E9458078FE39CE90197F1F700C019
:1032400000000E94580780E00E94050780FF04C02C
:103250000E9417190C94041908950E949E17811159
:1032600002C00E9442180E94A917809351010E9437
:10327000B11790931E0280931D020E94AD17682F14
:1032800070E090E080E00E94FF1460913C0170913A
:103290003D0180913E0190913F010C943915809140
:1032A000580180FF12C06091670085E0689FB001FF
:1032B0001124759567957595679560387105A8F522
:1032C00061157105A1F1862F089581FF09C06091F4
:1032D000670085E0689FB001112475956795EDCF73
:1032E0006091670082FD0AC0809157018823D1F068
:1032F0009091660060916700891728F085E0689FCB
:10330000B0011124DACF869FB001112485E0869F99
:103310009001879F300D1124692F70E0C9010E9430
:10332000781FCBCF65E070E0CECF8FE7089581E0C6
:1033300008958091580180FF0CC06091630070E097
:1033400075956795759567956115710549F1862F96
:10335000089581FF06C06091630070E075956795E0
:10336000F3CF6091630082FD0BC0909156019923C9
:10337000A1F06091620080916300961738F0682F89
:1033800070E06038710500F38FE70895899FC001F0
:10339000112470E00E94781FF4CF61E070E0D7CF75
:1033A00081E00895803F31F40E944F198195809308
:1033B0005B010895813F19F40E944F19F8CF823FB5
:1033C00031F40E944F19819580935A010895833FEB
:1033D00019F40E944F19F8CF893F29F40E949919D6
:1033E00080935C0108958A3F21F40E949919819588
:1033F000F7CF8B3F31F40E949919819580935D013D
:1034000008958C3F19F40E949919F8CF843F31F444
:10341000809159018160809359010895853F21F47D
:10342000809159018260F7CF863F21F48091590144
:103430008460F1CF873F21F4809159018860EBCF00
:10344000883F21F4809159018061E5CF8D3F31F4AF
:103450008091580181608093580108958E3F21F436
:10346000809158018260F7CF8F3FB9F78091580162
:103470008460F1CF90915A01803F59F480915B01B3
:1034800087FF0DC010925B0191110BC01092570184
:1034900008C0813F81F480915B0118169CF3992349
:1034A00081F080915C0190915D01892B09F064C0ED
:1034B000109256010895823F49F497FFF0CF109281
:1034C0005A0180915B018111ECCFE0CF833F19F469
:1034D0001916ACF3E4CF20915C01893F29F4121650
:1034E000F4F610925C01DBCF8A3F19F427FFD7CFA7
:1034F000F8CF20915D018B3F29F427FFD0CF1092A8
:103500005D01CDCF8C3F19F41216CCF3C8CF843FA8
:1035100031F4809159018E7F80935901C0CF853F4E
:1035200021F4809159018D7FF7CF863F21F480915E
:1035300059018B7FF1CF873F21F480915901877F1B
:10354000EBCF883F21F4809159018F7EE5CF8D3FED
:1035500031F4809158018E7F80935801A0CF8E3F27
:1035600021F4809158018D7FF7CF8F3F09F097CFDD
:10357000809158018B7FF0CF08950E94B9189C016B
:1035800090915A0180915B01982B21F03093550165
:103590002093540190915C0180915D01982B21F062
:1035A000309353012093520189E591E00C94330D3F
:1035B000EF92FF920F931F93CF93DF9300D000D031
:1035C0000F92CDB7DEB785E0E9E5F1E0DE011196B7
:1035D00001900D928A95E1F7E0905A01F0905B011D
:1035E00000915C0110915D0110925A0110925B01F3
:1035F00010925C0110925D018E2D8F2991F08091C7
:103600005401909155010E94D118AC01909157013D
:10361000992309F43EC0809168008417150608F4C8
:1036200046C0802F812B91F08091520190915301DF
:103630000E94D118AC0190915601992309F476C0EB
:10364000809164008417150608F47EC080915A01A9
:1036500090915B01892B90915C01892B90915D0188
:10366000892B11F00E94BD1A85E0FE013196A9E573
:10367000B1E001900D928A95E1F70F900F900F90B5
:103680000F900F90DF91CF911F910F91FF90EF90CE
:103690000895209169008AE0289F90011124241741
:1036A000350708F0BECF9F5F9093570102C09F3F40
:1036B000D1F7EE2059F00E944F199FEF1E140CF421
:1036C00091E0899F802D112480935A01FF2059F0A9
:1036D0000E944F199FEF1F140CF491E0899F802DD9
:1036E000112480935B0130915A01332309F499CF5F
:1036F00020915B01222309F494CF45EB3403C001F0
:103700001124992359F090935A0145EB2403900119
:103710001124332339F030935B0183CF81E0809310
:103720005A01F3CF81E080935B017BCF209165004C
:103730008AE0289F900111242417350708F086CFCE
:103740009F5F9093560102C09F3FD1F7002359F02D
:103750000E9499199FEF10160CF491E0899F802D1B
:10376000112480935C01112359F00E9499199FEF55
:1037700011160CF491E0899F802D112480935D0136
:1037800030915C01332309F461CF20915D01222344
:1037900009F45CCF45EB3403C0011124992359F09F
:1037A00090935C0145EB240390011124332339F0FD
:1037B00030935D014BCF81E080935C01F3CF81E0DA
:1037C00080935D0143CF85E0E9E5F1E0DF011D92E3
:1037D0008A95E9F7109257011092560110925801FC
:1037E00008950E94B9188C010E94780D0E944F1D07
:1037F0000E94170D0E945D1F8B9A80E08150B1F5E9
:103800008B987894FFEF20E732E0F1502040304071
:10381000E1F700C000000E94840DC0E0DCE0809170
:103820004602882369F1109246020E94B9188C0161
:103830000E946D1E80914C02882329F080912A02FB
:1038400084FD0E948E0D0E94BC1C0E946D1E809102
:103850004C02882329F08091630284FD0E94431D5D
:103860000E94820D0E94830DC0E0D9CFA895EFE998
:10387000FFE03197F1F700C00000C0CFC1E0CFCF2B
:10388000C8010E94D118069710F4CC2389F20E9437
:103890009E18C82F882391F3F89491B3939A892F97
:1038A0008C6081BB82B38D2782BB8FE7E8E3F1E0B8
:1038B0008150E040F040E1F700C0000082B38D2766
:1038C00082BB91BB93987894AACF809110020895FF
:1038D000CF93DF9300D00F92CDB7DEB79091600108
:1038E000981307C020915E0130915F0126173707BA
:1038F00091F08093600170935F0160935E01898312
:103900007B836A838091630284FF05C063E0CE01FC
:1039100001960E94651E0F900F900F90DF91CF913E
:103920000895BC0184E00C94681CBC0183E00C94F5
:10393000681CCF93DF9300D000D000D0CDB7DEB7A6
:10394000FC0182E0898395E0DE01129601900D92E0
:103950009A95E1F78091630284FF05C066E0CE018D
:1039600001960E94651E26960FB6F894DEBF0FBE24
:10397000CDBFDF91CF910895CF93DF93CAE0D0E020
:1039800080912A0284FF1AC080918D0190918E014E
:10399000981789F028E0829FC001112468E08157C0
:1039A0009E4F0E94611E80918D0190E001968F7064
:1039B000992780938D01DF91CF9108950E946D1E0C
:1039C0008FE99FE00197F1F700C000002197C1F651
:1039D000F2CFCF93DF93EC01A0918E01B0E0CD0147
:1039E00001968F70992720918D01281779F093E027
:1039F000AA0FBB1F9A95E1F7A157BE4F98E0FE01B1
:103A000001900D929A95E1F780938E010E946D1EB0
:103A10000E94BC1C88E0FE01A5E8B1E001900D9277
:103A20008A95E1F7DF91CF9108950F931F93CF937C
:103A3000DF93EC01603211F58C01005E1F4F02C074
:103A40000E946D1E8091360284FFFACF68E0CE019D
:103A50000E94691E2896C017D107A1F780913602EF
:103A600084FF09C060E090E080E0DF91CF911F917A
:103A70000F910C94691E0E946D1EF0CFDF91CF91C3
:103A80001F910F91089580916401803239F460E2B2
:103A900085E691E00E9497081092640108958AE6F5
:103AA00090E00895FC01808180768032F1F481817C
:103AB000813061F484819581892BB9F485E891E0A6
:103AC000909348028093470288E00895823041F441
:103AD0008FE092E0909348028093470281E008953E
:103AE0008A3029F4838180930F0280E00895893021
:103AF000E1F7828193818115924069F484819581F7
:103B0000892B49F481E080936301868197819093AA
:103B10006201809361018FEF0895FC018091610142
:103B200090916201892B61F080916301813041F4B1
:103B30009081909310021092620110926101089599
:103B40008FEF0895683019F0109264010895209164
:103B500064012931C8F7FC01A22FB0E0AB59BE4F78
:103B6000089631913D93E817F907D9F7285F20931C
:103B700064010895FC018381833089F130F4813040
:103B8000F1F0823021F180E00895813209F44BC0D8
:103B90008232C9F7248135812130310509F461C0B1
:103BA0002115310509F455C02230310561F783E54F
:103BB00092E0909348028093470281E808958FEE47
:103BC00091E0909348028093470282E1089584E94E
:103BD00091E090934802809347028BE5089582819B
:103BE000813089F0882339F08230A9F0833059F68A
:103BF00081E092E002C08DE292E0909348028093CF
:103C0000470284E0089585E192E090934802809312
:103C1000470286E1089587E092E0909348028093FE
:103C200047028CE008958281813081F0882331F051
:103C3000823009F0A8CF8FED91E002C086EA91E0D2
:103C4000909348028093470289E008958FEB91E0BA
:103C5000F7CF84ED92E0909348028093470280E48E
:103C6000089521E332E030934802209347020895FB
:103C70001F93CF93DF93E82F792F162FEA018881C6
:103C800084FF1CC0298188E828272983CE01029659
:103C9000DC012E2F372F512F5E0FF90121912D932B
:103CA0009F01452F4E1B1416C4F3612F0E94E5019E
:103CB0001C5F1883DF91CF911F9108958AE5888357
:103CC000E5CF4AE252E00C94381E43E652E00C94F1
:103CD000381E46E352E00C94381ECF93DF93609178
:103CE0004902635067FD12C080914502CCE0D0E0EC
:103CF000C81BD109C35BDD4F80914402803108F0BD
:103D000054C0CE010E94A21D1092490280917500FC
:103D100084FF3EC0809174008F3FD1F1C82F89305D
:103D200008F0C8E0982F9C1B9093740090911F029C
:103D300028E8922790931F028823E9F08091470298
:103D4000909148022091430226FFAEC0FC012C2F27
:103D5000A0E2B2E034913D9331962150D9F79C0115
:103D60002F5F3F4F8FEF8C0F820F932F911D9093FA
:103D70004802809347026C2F80E292E00E94E501A6
:103D8000CC5FCC3019F08FEF80937400C093750036
:103D900084E190B39C7031F48150D9F710924A02BB
:103DA00010924202DF91CF9108958D3209F069C0DF
:103DB000683009F0A9CF83EC80931F028AE58093D5
:103DC0007500109243028881807671F0CE010E94C6
:103DD000521D8F3FC1F4988197FD8E8190E890939A
:103DE00043028093740090CF2A8110922802998117
:103DF000911111C01092290228E232E082E0309342
:103E00004802209347029F819111EBCF9E81981722
:103E100040F7892FE6CF953029F420934A0228E213
:103E200032E0EDCF963099F49B81913021F4CE01B0
:103E30000E94BA1D08C09230D1F39330C1F3913281
:103E4000B1F39232A1F390E490934302C2CF983041
:103E500089F0993019F420934C02E1CF9A3071F037
:103E60009B30E9F69BE490932B029093640290932D
:103E70003702D5CF2CE432E081E0C1CF28E232E036
:103E8000FBCF8091430287FF3FCFCE010E948D1D63
:103E90008F3F21F48EE18093750036CF882309F49B
:103EA00033CF1092740030CFDC012C2FE0E2F2E02F
:103EB0003D9131932150E1F752CFCF93DF9385B7F6
:103EC000886085BF8BB780688BBFCAE2D2E08BE485
:103ED0008983A3E6B2E011968C931197E6E3F2E0B2
:103EE00081838AE588838C938083DF91CF910895C5
:103EF00097FB072E16F4009407D077FD09D00E9497
:103F0000991F07FC05D03EF4909581959F4F089529
:103F1000709561957F4F0895EE0FFF1F0590F49106
:103F2000E02D09946927962769277827872778271E
:103F30000895AA1BBB1B51E107C0AA1FBB1FA617F0
:103F4000B70710F0A61BB70B881F991F5A95A9F742
:103F500080959095BC01CD010895E199FECF9FBB5E
:103F60008EBBE09A99278DB30895A8E1B0E042E0B6
:103F700050E00C94E01F262FE199FECF9FBB8EBB33
:103F8000E09A01970DB2021631F02DBB0FB6F894EE
:103F9000E29AE19A0FBE08950396272F0E94BC1F54
:103FA0000E94BB1F252F0E94BC1F242F0C94BC1FF6
:103FB0000196272F0E94BC1F0C94BB1FDC01CB0174
:103FC000FC01E199FECF06C0FFBBEEBBE09A319643
:103FD0000DB20D9241505040B8F70895F894FFCFBC
:103FE000A908B608DD08E908F408FF080209020973
:103FF00002094B094E090509090911091E092B0976
:104000002E0931093E092D0F2D0F850F850FD70F72
:10401000F30F5A0F5A0FFE0F8A1099109910F510CE
:104020005A0F5A0FFE10731173117C117C117E11FF
:104030007C117C117C117311731183117C117C1123
:024040008311EA
:1040420046012808641E140A321E651CE91C991CCC
:10405200951C911CFF5AE200E900EA00B500B60087
:10406200B700CD008301CC008A01920194012102A4
:10407200230224022502260227022A02B300B400E8
:104082006F00700081828391646362619293949560
:10409200E200E900EA00B500B600B700CD008301F6
:1040A200CC008A01920194012102230224022502FA
:1040B200260227022A02B300B4006F007000818238
:0240C200830079
:00000001FF
